:100000000C945C000C9479000C9479000C947900A9
:100010000C9479000C9479000C9479000C9479007C
:100020000C9479000C9479000C9479000C9479006C
:100030000C9479000C9479000C9479000C9479005C
:100040000C94E6000C9479000C9479000C947900DF
:100050000C9479000C9479000C9479000C9479003C
:100060000C9479000C947900000000080002010053
:100070000003040700000000000000000000000072
:10008000250028002B0000000000240027002A0083
:10009000040404040404040402020202020203032E
:1000A0000303030301020408102040800102040836
:1000B000102001020408102011241FBECFEFD8E049
:1000C000DEBFCDBF11E0A0E0B1E0EAEEF3E002C098
:1000D00005900D92A830B107D9F721E0A8E0B1E072
:1000E00001C01D92A931B207E1F70E9430010C94C2
:1000F000F3010C94000090E0FC01EC55FF4F2491BB
:1001000080579F4FFC018491882399F090E0880FDD
:10011000991FFC01EA57FF4FA591B491FC01E458E7
:10012000FF4F859194918FB7F894EC91E22BEC936B
:100130008FBF089590E0FC01E859FF4F2491FC0126
:10014000EC55FF4F3491FC01E057FF4FE491EE2353
:10015000C9F0222339F0233001F1A8F4213019F13C
:10016000223029F1F0E0EE0FFF1FE458FF4FA59178
:10017000B4918FB7F894EC91611126C030953E236D
:100180003C938FBF08952730A9F02830C9F0243060
:1001900049F7809180008F7D03C0809180008F7728
:1001A00080938000DFCF84B58F7784BDDBCF84B5AB
:1001B0008F7DFBCF8091B0008F778093B000D2CF3E
:1001C0008091B0008F7DF9CF3E2BDACF1F920F9236
:1001D0000FB60F9211242F933F938F939F93AF935A
:1001E000BF938091150190911601A0911701B091D4
:1001F00018013091140123E0230F2D3758F5019693
:10020000A11DB11D20931401809315019093160137
:10021000A0931701B09318018091100190911101E2
:10022000A0911201B09113010196A11DB11D8093FF
:10023000100190931101A0931201B0931301BF918B
:10024000AF919F918F913F912F910F900FBE0F9083
:100250001F90189526E8230F0296A11DB11DD2CF3D
:10026000789484B5826084BD84B5816084BD85B591
:10027000826085BD85B5816085BD80916E0081609D
:1002800080936E0010928100809181008260809343
:100290008100809181008160809381008091800045
:1002A0008160809380008091B10084608093B10070
:1002B0008091B00081608093B00080917A0084606A
:1002C00080937A0080917A00826080937A00809196
:1002D0007A00816080937A0080917A0080688093B0
:1002E0007A001092C10085E00E947B0084E00E94A9
:1002F0007B0083E00E947B0082E00E947B0090E014
:10030000C92E90E0D92ED0E0C0E08FB7F89480904D
:10031000150190901601A0901701B09018018FBFA1
:1003200080920C0190920D01A0920E01B0920F01EB
:100330008091080190910901A0910A01B0910B01EF
:10034000A5019401281B390B4A0B5B0BDA01C9018B
:10035000803D9740A105B10530F444E68416910430
:10036000A104B104A8F560E085E00E949A0060E075
:1003700084E00E949A0060E083E00E949A0060E0BE
:1003800082E00E949A0080E0E82E81E0F82E10E0E2
:1003900000E0F7018081F2E0EF0EF11C9E01002EDB
:1003A00002C0359527950A94E2F761E020FF60E0EE
:1003B0000E949A000F5F1F4F0430110551F7809281
:1003C000080190920901A0920A01B0920B012196B6
:1003D000C031D10509F099CFC114D10409F493CFEC
:0A03E0000E94000090CFF894FFCFB8
:0803EA000200030004000500FD
:00000001FF
