:020000040000FA
:100000000C9461000C947E000C947E000C947E0095
:100010000C947E000C947E000C947E000C947E0068
:100020000C947E000C947E000C947E000C947E0058
:100030000C947E000C947E000C947E000C947E0048
:100040000C9408010C947E000C947E000C947E00AD
:100050000C947E000C947E000C947E000C947E0028
:100060000C947E000C947E0000000000230026000B
:10007000290000000000240027002A0000000000E2
:10008000250028002B0004040404040404040202D4
:100090000202020203030303030301020408102007
:1000A0004080010204081020010204081020000012
:1000B0000008000201000003040700000000000027
:1000C000000011241FBECFEFD8E0DEBFCDBF11E08E
:1000D000A0E0B1E0E4EDF5E002C005900D92A230A1
:1000E000B107D9F721E0A2E0B1E001C01D92AA3129
:1000F000B207E1F70E9452010C94E8020C94000050
:10010000833081F028F4813099F08230A9F008958D
:100110008730A9F08830C9F08430B1F48091800034
:100120008F7D03C0809180008F7780938000089539
:1001300084B58F7784BD089584B58F7DFBCF809182
:10014000B0008F778093B00008958091B0008F7DCC
:10015000F9CF1F93CF93DF93282F30E0F901E255B9
:10016000FF4F8491F901E656FF4FD491F901EA5708
:10017000FF4FC491CC23A9F0162F81110E9480005B
:10018000EC2FF0E0EE0FFF1FE458FF4FA591B49164
:100190008FB7F894EC91111108C0D095DE23DC9351
:1001A0008FBFDF91CF911F910895DE2BF8CFCF93B2
:1001B000DF9390E0FC01E656FF4F24918A579F4F52
:1001C000FC0184918823D1F090E0880F991FFC01F5
:1001D000EE58FF4FA591B491FC01E458FF4FC59133
:1001E000D491623071F49FB7F8943C91822F80953E
:1001F00083238C93E8812E2B28839FBFDF91CF919F
:1002000008958FB7F894EC912E2B2C938FBFF6CFD7
:100210001F920F920FB60F9211242F933F938F933B
:100220009F93AF93BF938091160190911701A09176
:100230001801B09119013091150123E0230F2D37DA
:1002400058F50196A11DB11D20931501809316014B
:1002500090931701A0931801B09319018091110197
:1002600090911201A0911301B09114010196A11D6A
:10027000B11D8093110190931201A0931301B093CB
:100280001401BF91AF919F918F913F912F910F904A
:100290000FBE0F901F90189526E8230F0296A11D00
:1002A000B11DD2CF789484B5826084BD84B581605D
:1002B00084BD85B5826085BD85B5816085BD809131
:1002C0006E00816080936E001092810080918100A9
:1002D00082608093810080918100816080938100A1
:1002E000809180008160809380008091B100846063
:1002F0008093B1008091B00081608093B0008091C4
:100300007A00846080937A0080917A008260809382
:100310007A0080917A00816080937A0080917A00DF
:10032000806880937A001092C10061E082E00E94B0
:10033000D70061E083E00E94D70061E084E00E9482
:10034000D70062E087E00E94D700C5EBD0E001EA69
:1003500010E09DE8E92E90E0F92E20E0C22E20E08A
:10036000D22E8FB7F8948090160190901701A0902C
:100370001801B09019018FBF80920D0190920E016B
:10038000A0920F01B0921001FE018491F8017490C7
:10039000F7016490662009F461C081110E94800019
:1003A000E62DF0E0EE0FFF1FE859FF4FA591B49145
:1003B0008C91782209F452C080910C01811164C0A3
:1003C000809100018823A9F0809106019091070196
:1003D000A0910801B0910901A5019401281B390BD6
:1003E0004A0B5B0BDA01C901803D9740A105B105BD
:1003F00038F444E684169104A104B10408F090C0D6
:1004000061E082E00E94A90060E083E00E94A90010
:1004100060E084E00E94A90081E080930B011092CB
:1004200000018091020190910301A0910401B0911B
:100430000501881A990AAA0ABB0A809206019092BD
:100440000701A0920801B0920901109202011092D6
:10045000030110920401109205010FC061E082E0D7
:100460000E94A90060E083E00E94A90060E084E0AF
:100470000E94A90081E080930C01C114D10409F409
:1004800070CF0E9400006DCF80910B01882361F036
:1004900090910001911108C081E0809300011092B9
:1004A0000A0110920B010DC090910A01992391F15C
:1004B000811130C081E080930B0110920A011092EB
:1004C00000018091060190910701A0910801B0916F
:1004D0000901A5019401281B390B4A0B5B0BDA01BA
:1004E000C9018093020190930301A0930401B0938A
:1004F000050130ED831A37E0930AA108B108809214
:10050000060190920701A0920801B0920901109291
:100510000C01B3CF81E080930A0110920001C1CF9A
:1005200080910B01882339F1809106019091070198
:10053000A0910801B0910901A5019401281B390B74
:100540004A0B5B0BDA01C901803D9740A105B1055B
:1005500090F060E082E00E94A90061E083E00E94E8
:10056000A90060E084E00E94A90081E080930A0174
:1005700010920B0156CF80910A01882309F47DCF98
:100580008091060190910701A0910801B0910901A5
:10059000A5019401281B390B4A0B5B0BDA01C90139
:1005A000803D9740A105B10508F467CF60E082E087
:1005B0000E94A90060E083E00E94A90061E084E05D
:1005C0000E94A90081E08093000110920A0129CFC6
:0605D000F894FFCF0100CA
:107E0000112484B714BE81FFF0D085E080938100F7
:107E100082E08093C00088E18093C10086E0809377
:107E2000C20080E18093C4008EE0C9D0259A86E02C
:107E300020E33CEF91E0309385002093840096BBD3
:107E4000B09BFECF1D9AA8958150A9F7CC24DD24C4
:107E500088248394B5E0AB2EA1E19A2EF3E0BF2EE7
:107E6000A2D0813461F49FD0082FAFD0023811F036
:107E7000013811F484E001C083E08DD089C08234E0
:107E800011F484E103C0853419F485E0A6D080C0E4
:107E9000853579F488D0E82EFF2485D0082F10E0AE
:107EA000102F00270E291F29000F111F8ED06801E7
:107EB0006FC0863521F484E090D080E0DECF843638
:107EC00009F040C070D06FD0082F6DD080E0C81688
:107ED00080E7D80618F4F601B7BEE895C0E0D1E017
:107EE00062D089930C17E1F7F0E0CF16F0E7DF06D8
:107EF00018F0F601B7BEE89568D007B600FCFDCFD4
:107F0000A601A0E0B1E02C9130E011968C91119780
:107F100090E0982F8827822B932B1296FA010C0160
:107F200087BEE89511244E5F5F4FF1E0A038BF0790
:107F300051F7F601A7BEE89507B600FCFDCF97BE46
:107F4000E89526C08437B1F42ED02DD0F82E2BD052
:107F50003CD0F601EF2C8F010F5F1F4F84911BD097
:107F6000EA94F801C1F70894C11CD11CFA94CF0C13
:107F7000D11C0EC0853739F428D08EE10CD085E9AC
:107F80000AD08FE07ACF813511F488E018D01DD067
:107F900080E101D065CF982F8091C00085FFFCCF94
:107FA0009093C60008958091C00087FFFCCF809118
:107FB000C00084FD01C0A8958091C6000895E0E648
:107FC000F0E098E1908380830895EDDF803219F02E
:107FD00088E0F5DFFFCF84E1DECF1F93182FE3DFCA
:107FE0001150E9F7F2DF1F91089580E0E8DFEE27F6
:047FF000FF270994CA
:027FFE00040479
:00000001FF
